{
  "contractName": "crop",
  "abi": [
    {
      "constant": true,
      "inputs": [
        {
          "name": "",
          "type": "address"
        }
      ],
      "name": "farmerids",
      "outputs": [
        {
          "name": "fid",
          "type": "uint256"
        }
      ],
      "payable": false,
      "stateMutability": "view",
      "type": "function"
    },
    {
      "constant": true,
      "inputs": [],
      "name": "lotCount",
      "outputs": [
        {
          "name": "",
          "type": "uint256"
        }
      ],
      "payable": false,
      "stateMutability": "view",
      "type": "function"
    },
    {
      "constant": true,
      "inputs": [
        {
          "name": "",
          "type": "uint256"
        }
      ],
      "name": "farmers",
      "outputs": [
        {
          "name": "fid",
          "type": "uint256"
        },
        {
          "name": "fname",
          "type": "string"
        },
        {
          "name": "loc",
          "type": "string"
        },
        {
          "name": "contact",
          "type": "uint256"
        },
        {
          "name": "fadd",
          "type": "address"
        }
      ],
      "payable": false,
      "stateMutability": "view",
      "type": "function"
    },
    {
      "constant": true,
      "inputs": [
        {
          "name": "",
          "type": "address"
        }
      ],
      "name": "customerids",
      "outputs": [
        {
          "name": "cid",
          "type": "uint256"
        }
      ],
      "payable": false,
      "stateMutability": "view",
      "type": "function"
    },
    {
      "constant": true,
      "inputs": [
        {
          "name": "",
          "type": "uint256"
        }
      ],
      "name": "customers",
      "outputs": [
        {
          "name": "cid",
          "type": "uint256"
        },
        {
          "name": "cname",
          "type": "string"
        },
        {
          "name": "loc",
          "type": "string"
        },
        {
          "name": "contact",
          "type": "uint256"
        },
        {
          "name": "cadd",
          "type": "address"
        }
      ],
      "payable": false,
      "stateMutability": "view",
      "type": "function"
    },
    {
      "constant": true,
      "inputs": [
        {
          "name": "",
          "type": "uint256"
        }
      ],
      "name": "lots",
      "outputs": [
        {
          "name": "fid",
          "type": "uint256"
        },
        {
          "name": "lid",
          "type": "uint256"
        },
        {
          "name": "crop",
          "type": "string"
        },
        {
          "name": "quantity",
          "type": "uint256"
        },
        {
          "name": "price",
          "type": "uint256"
        },
        {
          "name": "prodate",
          "type": "string"
        },
        {
          "name": "expdate",
          "type": "string"
        },
        {
          "name": "sold_status",
          "type": "bool"
        },
        {
          "name": "cid",
          "type": "uint256"
        }
      ],
      "payable": false,
      "stateMutability": "view",
      "type": "function"
    },
    {
      "constant": false,
      "inputs": [
        {
          "name": "id",
          "type": "uint256"
        },
        {
          "name": "name",
          "type": "string"
        },
        {
          "name": "location",
          "type": "string"
        },
        {
          "name": "con",
          "type": "uint256"
        }
      ],
      "name": "registerFarmer",
      "outputs": [],
      "payable": false,
      "stateMutability": "nonpayable",
      "type": "function"
    },
    {
      "constant": false,
      "inputs": [
        {
          "name": "id",
          "type": "uint256"
        },
        {
          "name": "name",
          "type": "string"
        },
        {
          "name": "location",
          "type": "string"
        },
        {
          "name": "con",
          "type": "uint256"
        }
      ],
      "name": "registerCustomer",
      "outputs": [],
      "payable": false,
      "stateMutability": "nonpayable",
      "type": "function"
    },
    {
      "constant": false,
      "inputs": [
        {
          "name": "_crop",
          "type": "string"
        },
        {
          "name": "_quantity",
          "type": "uint256"
        },
        {
          "name": "_price",
          "type": "uint256"
        },
        {
          "name": "_prodate",
          "type": "string"
        },
        {
          "name": "_expdate",
          "type": "string"
        }
      ],
      "name": "addLot",
      "outputs": [],
      "payable": false,
      "stateMutability": "nonpayable",
      "type": "function"
    },
    {
      "constant": false,
      "inputs": [
        {
          "name": "fid",
          "type": "uint256"
        },
        {
          "name": "lid",
          "type": "uint256"
        }
      ],
      "name": "buyLot",
      "outputs": [
        {
          "name": "",
          "type": "uint256"
        }
      ],
      "payable": true,
      "stateMutability": "payable",
      "type": "function"
    }
  ],
  "bytecode": "0x60806040526000805534801561001457600080fd5b50610fc6806100246000396000f3fe6080604052600436106100915760003560e01c8063bd9bba0511610059578063bd9bba051461040b578063bed559861461043e578063c0abda2a1461057d578063cf7e00cb146105a7578063f1648e84146106e657610091565b806325cf664d146100965780637ae169e9146100db5780638afdd669146100f05780639f3e1aa81461021f578063b32fdcea146103e8575b600080fd5b3480156100a257600080fd5b506100c9600480360360208110156100b957600080fd5b50356001600160a01b0316610882565b60408051918252519081900360200190f35b3480156100e757600080fd5b506100c9610894565b3480156100fc57600080fd5b5061011a6004803603602081101561011357600080fd5b503561089a565b604051808681526020018060200180602001858152602001846001600160a01b03166001600160a01b03168152602001838103835287818151815260200191508051906020019080838360005b8381101561017f578181015183820152602001610167565b50505050905090810190601f1680156101ac5780820380516001836020036101000a031916815260200191505b50838103825286518152865160209182019188019080838360005b838110156101df5781810151838201526020016101c7565b50505050905090810190601f16801561020c5780820380516001836020036101000a031916815260200191505b5097505050505050505060405180910390f35b34801561022b57600080fd5b506103e6600480360360a081101561024257600080fd5b810190602081018135600160201b81111561025c57600080fd5b82018360208201111561026e57600080fd5b803590602001918460018302840111600160201b8311171561028f57600080fd5b91908080601f0160208091040260200160405190810160405280939291908181526020018383808284376000920191909152509295843595602086013595919450925060608101915060400135600160201b8111156102ed57600080fd5b8201836020820111156102ff57600080fd5b803590602001918460018302840111600160201b8311171561032057600080fd5b91908080601f0160208091040260200160405190810160405280939291908181526020018383808284376000920191909152509295949360208101935035915050600160201b81111561037257600080fd5b82018360208201111561038457600080fd5b803590602001918460018302840111600160201b831117156103a557600080fd5b91908080601f0160208091040260200160405190810160405280939291908181526020018383808284376000920191909152509295506109e8945050505050565b005b6100c9600480360360408110156103fe57600080fd5b5080359060200135610abe565b34801561041757600080fd5b506100c96004803603602081101561042e57600080fd5b50356001600160a01b0316610b42565b34801561044a57600080fd5b506103e66004803603608081101561046157600080fd5b81359190810190604081016020820135600160201b81111561048257600080fd5b82018360208201111561049457600080fd5b803590602001918460018302840111600160201b831117156104b557600080fd5b91908080601f0160208091040260200160405190810160405280939291908181526020018383808284376000920191909152509295949360208101935035915050600160201b81111561050757600080fd5b82018360208201111561051957600080fd5b803590602001918460018302840111600160201b8311171561053a57600080fd5b91908080601f0160208091040260200160405190810160405280939291908181526020018383808284376000920191909152509295505091359250610b54915050565b34801561058957600080fd5b5061011a600480360360208110156105a057600080fd5b5035610bf7565b3480156105b357600080fd5b506103e6600480360360808110156105ca57600080fd5b81359190810190604081016020820135600160201b8111156105eb57600080fd5b8201836020820111156105fd57600080fd5b803590602001918460018302840111600160201b8311171561061e57600080fd5b91908080601f0160208091040260200160405190810160405280939291908181526020018383808284376000920191909152509295949360208101935035915050600160201b81111561067057600080fd5b82018360208201111561068257600080fd5b803590602001918460018302840111600160201b831117156106a357600080fd5b91908080601f0160208091040260200160405190810160405280939291908181526020018383808284376000920191909152509295505091359250610c69915050565b3480156106f257600080fd5b506107106004803603602081101561070957600080fd5b5035610d0b565b604051808a81526020018981526020018060200188815260200187815260200180602001806020018615151515815260200185815260200184810384528b818151815260200191508051906020019080838360005b8381101561077d578181015183820152602001610765565b50505050905090810190601f1680156107aa5780820380516001836020036101000a031916815260200191505b5084810383528851815288516020918201918a019080838360005b838110156107dd5781810151838201526020016107c5565b50505050905090810190601f16801561080a5780820380516001836020036101000a031916815260200191505b50848103825287518152875160209182019189019080838360005b8381101561083d578181015183820152602001610825565b50505050905090810190601f16801561086a5780820380516001836020036101000a031916815260200191505b509c5050505050505050505050505060405180910390f35b60046020526000908152604090205481565b60005481565b600160208181526000928352604092839020805481840180548651600296821615610100026000190190911695909504601f810185900485028601850190965285855290949193929091908301828280156109365780601f1061090b57610100808354040283529160200191610936565b820191906000526020600020905b81548152906001019060200180831161091957829003601f168201915b50505060028085018054604080516020601f60001961010060018716150201909416959095049283018590048502810185019091528181529596959450909250908301828280156109c85780601f1061099d576101008083540402835291602001916109c8565b820191906000526020600020905b8154815290600101906020018083116109ab57829003601f168201915b5050505060038301546004909301549192916001600160a01b0316905085565b6000805460019081018083558083526002602081815260408086209485019390935533855260048152828520548282529093558354845292208751610a34939190910191880190610eff565b5060008054815260026020908152604080832060030187905582548352808320600401869055825483529091208351610a7592600590920191850190610eff565b506000805481526002602090815260409091208251610a9c92600690920191840190610eff565b5050600080548152600260205260409020600701805460ff1916905550505050565b3360009081526005602090815260408083205485845260019092528083206004015490513492916001600160a01b03169083156108fc0290849086818181858888f19350505050158015610b16573d6000803e3d6000fd5b50600084815260026020526040902060078101805460ff19166001179055600801555034905092915050565b60056020526000908152604090205481565b600084815260016020526040902054610bf15760008481526001602081815260409092208681558551610b8f93919092019190860190610eff565b5060008481526001602090815260409091208351610bb592600290920191850190610eff565b50600084815260016020908152604080832060038101859055600490810180546001600160a01b03191633908117909155845290915290208490555b50505050565b6003602090815260009182526040918290208054600180830180548651600293821615610100026000190190911692909204601f8101869004860283018601909652858252919492939092908301828280156109365780601f1061090b57610100808354040283529160200191610936565b600084815260036020526040902054610bf15760008481526003602090815260409091208581558451610ca492600190920191860190610eff565b5060008481526003602090815260409091208351610cca92600290920191850190610eff565b506000848152600360208181526040808420928301859055600490920180546001600160a01b03191633908117909155835260059052902084905550505050565b6002602081815260009283526040928390208054600180830154838601805488519381161561010002600019011696909604601f810186900486028301860190975286825291959194929390929190830182828015610dab5780601f10610d8057610100808354040283529160200191610dab565b820191906000526020600020905b815481529060010190602001808311610d8e57829003601f168201915b505050505090806003015490806004015490806005018054600181600116156101000203166002900480601f016020809104026020016040519081016040528092919081815260200182805460018160011615610100020316600290048015610e555780601f10610e2a57610100808354040283529160200191610e55565b820191906000526020600020905b815481529060010190602001808311610e3857829003601f168201915b5050505060068301805460408051602060026001851615610100026000190190941693909304601f8101849004840282018401909252818152949594935090830182828015610ee55780601f10610eba57610100808354040283529160200191610ee5565b820191906000526020600020905b815481529060010190602001808311610ec857829003601f168201915b505050506007830154600890930154919260ff1691905089565b828054600181600116156101000203166002900490600052602060002090601f016020900481019282601f10610f4057805160ff1916838001178555610f6d565b82800160010185558215610f6d579182015b82811115610f6d578251825591602001919060010190610f52565b50610f79929150610f7d565b5090565b610f9791905b80821115610f795760008155600101610f83565b9056fea165627a7a723058201d32758903a0f1185d11189f57a2a4390088ae4d8f435b0ee8d4ec37f0d011fb0029",
  "source": "pragma solidity ^0.5.0;\r\n\r\ncontract crop {\r\n    \r\n    struct Farmer {\r\n   \r\n    uint fid;\r\n    string fname;\r\n    string loc;\r\n    uint256 contact;\r\n    address payable fadd;\r\n    \r\n}\r\n    struct Lot{\r\n        uint fid;\r\n        uint lid;\r\n        string crop;\r\n        uint quantity;\r\n        uint price;\r\n        string prodate;\r\n        string expdate;\r\n        bool sold_status;\r\n        uint cid;\r\n    }\r\n    \r\n    struct Customer{\r\n        uint cid;\r\n        string cname;\r\n        string loc;\r\n        uint256 contact;\r\n        address cadd;\r\n        \r\n    }\r\n    \r\n    struct FarmerId {\r\n        uint fid;\r\n    }\r\n\r\n    struct CustomerId{\r\n        uint cid;\r\n    }\r\n    \r\n    uint public lotCount=0;\r\n    mapping(uint => Farmer) public farmers;\r\n    mapping(uint => Lot) public lots;\r\n    mapping(uint => Customer) public customers;\r\n    mapping(address => FarmerId) public farmerids;\r\n    mapping(address => CustomerId) public customerids;\r\n    \r\n    function registerFarmer(uint id, string memory name, string memory location, uint con) public {\r\n        if(farmers[id].fid==0){\r\n        farmers[id].fid=id;\r\n        farmers[id].fname=name;\r\n        farmers[id].loc=location;\r\n        farmers[id].contact=con;\r\n        farmers[id].fadd=msg.sender;\r\n        farmerids[msg.sender].fid=id;\r\n        }\r\n    }\r\n    \r\n    function registerCustomer(uint id, string memory name, string memory location, uint con) public {\r\n        if(customers[id].cid==0){\r\n        customers[id].cid=id;\r\n        customers[id].cname=name;\r\n        customers[id].loc=location;\r\n        customers[id].contact=con;\r\n        customers[id].cadd=msg.sender;\r\n        customerids[msg.sender].cid=id;\r\n        }\r\n    }\r\n    \r\n    function addLot(string memory _crop,uint _quantity,uint _price,string memory _prodate,string memory _expdate) public{\r\n        lotCount+=1;\r\n        lots[lotCount].lid=lotCount;\r\n        lots[lotCount].fid=farmerids[msg.sender].fid;\r\n        lots[lotCount].crop=_crop;\r\n        lots[lotCount].quantity=_quantity;\r\n        lots[lotCount].price=_price;\r\n        lots[lotCount].prodate=_prodate;\r\n        lots[lotCount].expdate=_expdate;\r\n        lots[lotCount].sold_status=false;\r\n        \r\n        \r\n    }\r\n    \r\n     function buyLot(uint fid,uint lid)public payable returns (uint)\r\n    {\r\n        uint amount=msg.value;\r\n        uint cid=customerids[msg.sender].cid;\r\n        //require(lots[lid].price==msg.value);\r\n        \r\n        farmers[fid].fadd.transfer(amount);\r\n        lots[lid].sold_status=true;\r\n        lots[lid].cid=cid;\r\n       // return true;\r\n       return msg.value;\r\n  \r\n    }\r\n\r\n\r\n     \r\n    \r\n}\r\n\r\n\r\n    \r\n    \r\n",
  "sourcePath": "F:/Hackit/BlockCrop/contracts/crop.sol",
  "compiler": {
    "name": "solc",
    "version": "0.5.8+commit.23d335f2.Emscripten.clang"
  },
  "schemaVersion": "3.0.17",
  "updatedAt": "2020-02-02T04:40:05.302Z",
  "networkType": "ethereum",
  "devdoc": {
    "methods": {}
  },
  "userdoc": {
    "methods": {}
  }
}